:020000040000FA
:0400000000EF08F015
:020004000000FA
:10100000030E926E000E936E956E010EC26E150E5B
:10101000C06EC00E946EB06A4D0EAF6E200EAC6EF8
:10102000AB8EB8989D98C282C2A214EF08F0C4CFCC
:1010300010F0C3CF11F010C081FF1150C00B116E22
:10104000836E10C0ADFFACA223EF08F011C0ADFF5E
:10105000ACA228EF08F013EF08F0030E156EFF0E98
:10106000166E176E1706FEE11606FBE11506F8E18F
:0210700012006C
:020000040030CA
:0100000024DB
:010001000EF0
:010002003FBE
:010003001EDE
:010005008179
:010006008178
:010008000FE8
:01000900C036
:01000A000FE6
:01000B00E014
:01000C000FE4
:01000D0040B2
:00000001FF
