:020000040000FA
:0400000000EF08F015
:020004000000FA
:10100000030E926E000E936E956E010EC26E0E0E62
:10101000C16E150EC06EC00E946EB06A4D0EAF6EEE
:10102000200EAC6E900EAB6EB8989D98C282C2A294
:1010300017EF08F0C4CF20F0C3CF21F020C081FF0C
:101040002150C00B216E836E9EAA16EF08F0226A13
:10105000AE50226E22A016EF08F020C0ADFFACA269
:101060002FEF08F021C0ADFFACA234EF08F016EF6F
:0210700008F086
:020000040030CA
:0100000024DB
:010001000EF0
:010002003FBE
:010003001EDE
:010005008179
:010006008178
:010008000FE8
:01000900C036
:01000A000FE6
:01000B00E014
:01000C000FE4
:01000D0040B2
:00000001FF
