:020000040000FA
:0400000000EF08F015
:020004000000FA
:10100000030E926E000E936E956E010EC26E0E0E62
:10101000C16E150EC06EC00E946EB06A4D0EAF6EEE
:10102000200EAC6E900EAB6EB8989D98C282C2A294
:1010300017EF08F0C4CF10F0C3CF11F010C081FF3C
:101040001150C00B116E836E9EAA16EF08F0126A43
:10105000AE50126E12A016EF08F010C0ADFFACA299
:101060002FEF08F011C0ADFFACA234EF08F016EF7F
:0210700008F086
:020000040030CA
:0100000024DB
:010001000EF0
:010002003FBE
:010003001EDE
:010005008179
:010006008178
:010008000FE8
:01000900C036
:01000A000FE6
:01000B00E014
:01000C000FE4
:01000D0040B2
:00000001FF
