:020000040000FA
:0400000000EF08F015
:020004000000FA
:10100000030E926E000E936E956E010EC26E0E0E62
:10101000C16E150EC06EC00E946EB06A4D0EAF6EEE
:10102000200EAC6E900EAB6EB8989D988284C282F2
:10103000C2A218EF08F0C4CF20F0C3CF21F020C027
:1010400081FF2150C00B216E836E9EAA17EF08F01E
:10105000226AAE50226E22A017EF08F0829420C0C0
:10106000ADFFACA231EF08F021C0ADFFACA236EF6E
:0810700008F0828417EF08F07C
:020000040030CA
:0100000024DB
:010001000EF0
:010002003FBE
:010003001EDE
:010005008179
:010006008178
:010008000FE8
:01000900C036
:01000A000FE6
:01000B00E014
:01000C000FE4
:01000D0040B2
:00000001FF
